:020000040800F2
:1000000038490020DD010008AB0300089303000815
:10001000A703000825020008A90700080000000047
:100020000000000000000000000000004501000882
:100030002902000800000000890100088D0F000857
:10004000F7010008F7010008F7010008F7010008B0
:10005000F7010008F7010008F7010008F7010008A0
:10006000F7010008F7010008F7010008F701000890
:10007000F7010008F7010008F7010008F701000880
:10008000F7010008F7010008F7010008F701000870
:10009000F7010008F7010008F7010008F701000860
:1000A000F7010008F7010008F7010008F701000850
:1000B000F7010008F7010008F7010008F701000840
:1000C000F7010008F7010008F7010008F701000830
:1000D000F7010008F7010008F7010008F701000820
:1000E000F7010008F7010008F7010008F701000810
:1000F000F7010008F7010008F7010008F701000800
:10010000F7010008F7010008F7010008F7010008EF
:10011000F7010008F7010008F7010008F7010008DF
:10012000F7010008F7010008F7010008F7010008CF
:10013000DFF80CD000F064F8004800471908000808
:1001400038490020224B19680868B0E8F00F80F3A6
:100150000988BFF36F8F4FF0000080F311884EF0D5
:100160000D0E70470000000006480068006880F32C
:10017000088862B661B6BFF34F8FBFF36F8F00DFA1
:1001800000BF00BF08ED00E0EFF30980BFF36F8F01
:100190000F4B1A6820E9F00F106008B54FF0BF0050
:1001A00080F31188BFF34F8FBFF36F8F00F0A4FE71
:1001B0004FF0000080F31188BDE808401968086816
:1001C000B0E8F00F80F30988BFF36F8F704700BF6E
:1001D00034000020EFF30580704700000648804798
:1001E00006480047FEE7FEE7FEE7FEE7FEE7FEE71C
:1001F000FEE7FEE7FEE7FEE789050008310100089B
:10020000064C074D06E0E06840F0010394E8070063
:1002100098471034AC42F6D3FFF78EFF3012000837
:100220005012000800BFFEE7704700001CB5002018
:10023000032103466422CDE9001008A1094800F01B
:10024000BFFE0020022103466422CDE9001006A172
:10025000074800F0B5FE00F015FE1CBD5461736B3D
:1002600020310000BD0D00085461736B2032000086
:10027000FD0D00082DE9F041024600250026002072
:1002800000230024002791F803C00CF00F0591F81B
:1002900003C00CF0100CBCF1000F03D091F802C0A9
:1002A0004CEA050591F800C0BCF1000F31D014688C
:1002B00000202BE04FF0010C0CFA00F3B1F800C065
:1002C0000CEA03069E4220D183004FF00F0C0CFA7B
:1002D00003F7BC4305FA03FC4CEA040491F803C09D
:1002E000BCF1280F06D14FF0010C0CFA00FCC2F84B
:1002F00014C00AE091F803C0BCF1480F05D14FF0DB
:10030000010C0CFA00FCC2F810C0401C0828D1D324
:100310001460B1F800C0BCF1FF0F34DD5468002058
:100320002EE000F1080C4FF0010808FA0CF3B1F8C8
:1003300000C00CEA03069E4221D183004FF00F0C4F
:100340000CFA03F7BC4305FA03FC4CEA040491F8E9
:1003500003C0BCF1280F05D100F1080C08FA0CF815
:10036000C2F8148091F803C0BCF1480F07D100F126
:10037000080C4FF0010808FA0CF8C2F81080401C75
:100380000828CED35460BDE8F08141617047016117
:10039000704700BFFEE710B500F072FC4FF4E1308B
:1003A00000F022F910BD00BFFEE7704729B1064AF0
:1003B00092690243044B9A6104E0034A92698243C2
:1003C000014B9A61704700000010024030B50021D7
:1003D0000022002400232D4D6D6805F00C0121B191
:1003E000042905D0082923D105E0294D056022E024
:1003F000274D05601FE0254D6D6805F47012234DF3
:100400006D6805F48034022505EB92421CB9214D3C
:10041000554305600BE01D4D6D6805F400351DB1B9
:100420001C4D5543056002E0194D5543056002E03F
:10043000174D056000BF00BF144D6D6805F0F00159
:100440000909154D6B5C0568DD4045600F4D6D6811
:1004500005F4E061090A104D6B5C4568DD4085607C
:100460000A4D6D6805F46051C90A0B4D6B5C456817
:10047000DD40C560054D6D6805F44041890B074DB1
:100480006B5CC568B5FBF3F5056130BD001002403B
:1004900000127A0000093D00040000201400002032
:1004A00010B500F001F810BD0CB5002001900090CF
:1004B0003348006840F480303149086000BF30485C
:1004C000006800F4003000900198401C01900098F2
:1004D00018B90198B0F5A06FF1D12948006800F46F
:1004E000003010B10120009001E000200090009841
:1004F000012843D12348006840F0100021490860DA
:100500000846006820F0030008600846006840F0D4
:10051000020008601A484068194948600846406867
:1005200048600846406840F480604860084640687B
:1005300020F47C1048600846406840F4E8104860A9
:100540000846006840F08070086000BF0C480068F2
:1005500000F000700028F9D00948406820F003003E
:10056000074948600846406840F00200486000BF04
:100570000348406800F00C000828F9D10CBD0000C9
:10058000001002400020024010B51348006840F0FF
:1005900001001149086008464068104908400E49AA
:1005A0004860084600680E4908400B490860084644
:1005B000006820F4802008600846406820F4FE00AF
:1005C00048604FF41F008860FFF76AFF4FF000603B
:1005D0000449086010BD0000001002400000FFF850
:1005E000FFFFF6FE08ED00E010B586B004460121DD
:1005F00044F20400FFF7DAFE4FF40070ADF8140087
:1006000018208DF8170003208DF8160005A915484D
:10061000FFF730FE4FF48060ADF8140004208DF831
:10062000170005A90F48FFF725FE01940020ADF83B
:100630000800ADF80A00ADF80C00ADF810000C2071
:10064000ADF80E0001A9084800F042F8012240F27E
:100650002551054800F016F80121034800F006F87E
:1006600006B010BD000801400038014021B1828968
:1006700042F40052828104E082894DF6FF731A40F1
:1006800082817047F0B50346002400260025002033
:1006900040F66A17B94200D100BF1846C1F34214B0
:1006A00001F01F06012707FA06F5012C01D10C30D5
:1006B00004E0022C01D1103000E014301AB10768B8
:1006C0002F43076002E00768AF430760F0BD0000FA
:1006D0002DE9F04786B005460E460024A24600BF2D
:1006E000A1460027B08900B100BF2F462C8A4CF6E6
:1006F000FF700440F08804432C82AC894EF6F3105E
:100700000440B08831890843718908430443AC81AF
:10071000AC8A4FF6FF400440B0890443AC8201A884
:10072000FFF754FE1F48874202D1DDF810A001E018
:10073000DDF80CA0A88900F4004040B10AEBCA0023
:1007400000EB0A1031684900B0FBF1F807E00AEB52
:10075000CA0000EB0A1031688900B0FBF1F8642090
:10076000B8FBF0F004012009642101FB1089A8897D
:1007700000F4004040B1322000EBC900B0FBF1F0C2
:1007800000F00700044308E0322000EB0910642168
:10079000B0FBF1F000F00F0004432C8106B0BDE87F
:1007A000F08700000038014000BFFEE7014A02491F
:1007B00000F013B8FD0700080000002002E008C8A0
:1007C000121F08C1002AFAD170477047002001E0CB
:1007D00001C1121F002AFBD170472DE9F0411646D6
:1007E0000F460446002503E03946B047641C6D1CE3
:1007F00020780028F8D12846BDE8F08100BF054ADE
:10080000128802F04002002AF9D0C2B2014B1B1D2F
:100810001A80704700380140FFF7BDFDFFF706FD65
:1008200000BFFEE72DE9F04105460E461C4807686B
:100830001C480068001D00F00FFA50B91948006804
:1008400090F82C1001208840174909688143164808
:100850000160681C38B936B112480168091D134897
:1008600000F054FA1AE07C190E4800684460BC425B
:1008700007D20C480168091D0D48006800F02CFAE9
:100880000CE008480168091D0A48006800F024FAD5
:1008900009480068844201D207480460BDE8F0813D
:1008A00048000020340000204C0000202445002097
:1008B0003C000020380000206400002010B50446F1
:1008C00000F030FA23480068401C224908602248A2
:1008D000006840B9204804600846006801280DD12E
:1008E00000F0F2F80AE01D48006838B91A480068BC
:1008F000C06AE16A884201D8174804601848006855
:10090000401C1749086094F82C10012088401549B4
:100910000968084313490860E16A01EB8101124A42
:1009200002EB8100211D00F0F1F900F00DFA0B48F7
:10093000006868B108480068C06AE16A884207D266
:100940004FF0805009490860BFF34F8FBFF36F8F9E
:1009500010BD0000440000203400002050000020A2
:10096000600000204C0000207044002004ED00E0F6
:1009700070B523E000F0B8FA1348006808B9012008
:1009800000E00020054600F0DFFBBDB900F0CAF929
:100990000D48C068C468201D00F05EF90B4800686F
:1009A000401E0A4908600A480068401E084908605D
:1009B00000F0CAF9204600F00DF800BF04480068B6
:1009C0000028D7D170BD0000104500204400002051
:1009D0004000002010B50446206B00F0C5F9204609
:1009E00000F0C2F910BD00000A4A22F007000A4ACE
:1009F00010600022084B5A6044F2F832074B5A60EC
:100A000000221A60014644F2F8324A601A460A602F
:100A1000704700007800002018000020200000200F
:100A200000BFFFF7A5FF064800680128F9D94FF07D
:100A3000805004490860BFF34F8FBFF36F8FF0E71A
:100A40007044002004ED00E02DE9FF5F80460E4673
:100A50009146DDE90E7A109CA9F10100216B01EBB2
:100A6000800B2BF0070B002507E0715D04F13400CB
:100A70004155705D00B902E06D1C102DF5D300BF2B
:100A8000002143200155052F00D30427E762201DD4
:100A900000F01FF904F1180000F01BF92461C7F100
:100AA0000500A06164620020606484F8480041464B
:100AB0005846039A00F0BEF82060BAF1000F01D04A
:100AC000CAF80040BDE8FF9F10B5002407E004EB22
:100AD00084010F4A02EB810000F0EEF8641C052C43
:100AE000F5D30C4800F0E8F80B4800F0E5F80B48A7
:100AF00000F0E2F80A4800F0DFF80A4800F0DCF8FD
:100B000004480949086004480849086010BD00000D
:100B100070440020D4440020E8440020FC4400201D
:100B20001045002024450020380000203C00002013
:100B30000A490968096809B9012100E0002121B1C9
:100B40004FF0FF31064A116006E004490968C968A0
:100B5000C868034A416811607047000038000020EF
:100B60006400002000BFBF2080F31188BFF34F8FC7
:100B7000BFF36F8F00BF00BFFEE700002DE9F0411B
:100B800004464FF0000800F0AFF92648006820B98D
:100B9000FFF72AFF01202349086044B1083404F01C
:100BA000070020B104F00700C0F108000444002C45
:100BB00032D044F2F83084422ED21B4F38460568BA
:100BC00001E02F462D686868A04202D228680028FC
:100BD000F7D1164885421FD0386800F10808286808
:100BE00038606868001B102810D92E196868001B2F
:100BF00070606C6071680C4800E0006802685268C0
:100C00008A42FAD302683260066000BF0849686809
:100C10000968081A0649086000F096FA4046BDE8DF
:100C2000F08100002C00002018000020200000208F
:100C300028000020001F4FF080730360001F21F088
:100C400001030360001F034B036014380260203867
:100C500070470000650B000801460A69D1E90130C0
:100C60009860D1E9010358605068884201D18868D2
:100C70005060002008611068401E106010687047C6
:100C800008B501211020FFF791FB4FF40050ADF89B
:100C9000000010208DF8030003208DF80200694643
:100CA0000448FFF7E7FA4FF400510248FFF76FFBE3
:100CB00008BD00000010014000F1080141604FF044
:100CC000FF31816000F10801C16001610021016014
:100CD000704700210161704710B502460B685C1C2B
:100CE0000CB9106907E002F1080000E040684468B0
:100CF00024689C42FAD944684C604C68A1608860C2
:100D000041600A611468641C146010BD42684A6046
:100D100093688B60936859609160086103685B1CFD
:100D20000360704700BFBF2080F31188BFF34F8F6F
:100D3000BFF36F8F00BF03480068401C0149086083
:100D4000704700003000002006480068401E05493A
:100D500008600846006820B9002080F3118800BFB1
:100D600000BF70473000002070B506463546B6B16A
:100D7000083D2C4600F0B8F86168094800E00068BA
:100D8000026852688A42FAD3026822600460054908
:100D90006068096808440349086000F0D5F970BD2F
:100DA000180000202800002003484FF0E02148618F
:100DB00007200861704700003F19010008B50024B2
:100DC00000F02EF9009000BF641C052C05D94FF4EB
:100DD00000510948FFF7DBFA04E04FF400510648E0
:100DE000FFF7D3FA0A2C00D100244FF47A71684639
:100DF00000F00EF8E8E700000010014000BF02A07C
:100E0000FFF7D4FCFBE700006162630A000000000A
:100E10002DE9F047044688464FF0000900F064F8D9
:100E200016480668206800EB08052068B04207D91C
:100E30002068A8420BD9B54209D94FF0010906E054
:100E40002068A84201D8B54201D94FF001092560B8
:100E5000B9F1000F03D0A81B0021FFF7E3FC00F05D
:100E600073F907463FB94FF0805005490860BFF35A
:100E70004F8FBFF36F8FBDE8F08700004800002060
:100E800004ED00E01CB5114800210B468022CDE99D
:100E900000100FA1104800F093F80446012C14D163
:100EA00000BFBF2080F31188BFF34F8FBFF36F8F58
:100EB00000BF4FF0FF300949086001200849086071
:100EC00000200849086000F047F81CBD68000020B9
:100ED00049444C4500000000210A0008640000203D
:100EE000500000204800002002480068401C0149D2
:100EF000086070476C0000201248006818B101209B
:100F0000114908601DE000200F4908600F48006883
:100F1000B0FA80F0C0F11F0101EB81020C4B03EB32
:100F2000820042685268426000F1080243689342BE
:100F300002D14268526842604268D268054B1A602A
:100F400000BF70476C000020580000204C000020BB
:100F5000704400203400002010B50A48006840F4B6
:100F60007F00084908600846006840F07F4008603C
:100F7000FFF71AFF002004490860FFF7F5F800208A
:100F800010BD000020ED00E03000002010B500BFD3
:100F9000BF2080F31188BFF34F8FBFF36F8F00BF67
:100FA00000F044F818B14FF080500449086000BFC9
:100FB000002080F3118800BF10BD000004ED00E0A8
:100FC0002DE9FF4F85B0804689461746DDE912AB13
:100FD000B800FFF7D3FD064656B14C20FFF7CEFD13
:100FE00004460CB1266304E03046FFF7BDFE00E086
:100FF00000247CB10020CDE900ABCDE902403A46A7
:1010000049464046089BFFF71FFD2046FFF756FC68
:10101000012501E04FF0FF35284609B0BDE8F08F0B
:101020000149086870470000480000202DE9F041A0
:1010300000273A480068002863D139480068451CF9
:10104000374805608DB93748D0F8008036480068C9
:10105000344908603448C0F8008034480068401CB7
:1010600032490860FFF764FD00BF314800688542DF
:101070003BD300BF2B480068006808B9012000E09E
:10108000002020B14FF0FF30294908602CE02548AE
:101090000068C068C4686668B54202D22448066029
:1010A00022E0201DFFF7D8FDA06A18B104F1180056
:1010B000FFF7D2FD94F82C10012088401D490968E3
:1010C00008431C490860E16A01EB81011A4A02EBFE
:1010D0008100211DFFF71AFE1849E06A0968C96AF4
:1010E0008842C7D30127C5E700BF14480068C06A1B
:1010F00000EB8000104951F82000012800D9012799
:1011000004E00F480068401C0D4908600D48006865
:1011100000B101273846BDE8F08100006C000020D6
:1011200048000020380000203C0000205C00002027
:10113000640000204C000020704400203400002097
:10114000540000205800002070B500240026FFF74E
:10115000E9FD2E480068401E2C49086008460068DA
:1011600000284FD12A48006800284BD024E02948A5
:10117000C068C46804F11800FFF76EFD201DFFF77A
:101180006BFD94F82C10012088402349096808431E
:1011900021490860E16A01EB8101204A02EB8100EC
:1011A000211DFFF7B3FD1E49E06A0968C96A88423C
:1011B00002D301201B4908601648006808B90120C5
:1011C00000E000200028D2D00CB1FFF7B1FC164897
:1011D000056865B100BFFFF729FF10B10120114973
:1011E00008606D1E002DF6D100200F4908600D48E3
:1011F000006838B1012630070C490860BFF34F8FF3
:10120000BFF36F8FFFF7A0FD304670BD6C0000206C
:1012100044000020FC4400204C00002070440020CA
:1012200034000020580000205400002004ED00E0AD
:10123000501200080000002070000000BC070008E9
:10124000C012000870000020C8480000CC07000849
:10125000000000000000000001020304010203047A
:10126000060708090204060800000000000000004C
:101270000000000000000000F84300000000000033
:10128000AAAAAAAA000000000000000000000000B6
:10129000000000000000000000000000000000004E
:1012A000000000000000000000000000000000003E
:1012B000000000000000000000000000000000002E
:0400000508000131BD
:00000001FF
