:020000040800F2
:1000000008050020DD010008330200082B0200086B
:100010002F020008250200087D03000800000000F0
:100020000000000000000000000000004501000882
:100030002902000800000000890100087904000876
:10004000F7010008F7010008F7010008F7010008B0
:10005000F7010008F7010008F7010008F7010008A0
:10006000F7010008F7010008F7010008F701000890
:10007000F7010008F7010008F7010008F701000880
:10008000F7010008F7010008F7010008F701000870
:10009000F7010008F7010008F7010008F701000860
:1000A000F7010008F7010008F7010008F701000850
:1000B000F7010008F7010008F7010008F701000840
:1000C000F7010008F7010008F7010008F701000830
:1000D000F7010008F7010008F7010008F701000820
:1000E000F7010008F7010008F7010008F701000810
:1000F000F7010008F7010008F7010008F701000800
:10010000F7010008F7010008F7010008F7010008EF
:10011000F7010008F7010008F7010008F7010008DF
:10012000F7010008F7010008F7010008F7010008CF
:10013000DFF80CD000F064F8004800479F03000887
:1001400008050020224B19680868B0E8F00F80F31A
:100150000988BFF36F8F4FF0000080F311884EF0D5
:100160000D0E70470000000006480068006880F32C
:10017000088862B661B6BFF34F8FBFF36F8F00DFA1
:1001800000BF00BF08ED00E0EFF30980BFF36F8F01
:100190000F4B1A6820E9F00F106008B54FF0BF0050
:1001A00080F31188BFF34F8FBFF36F8F00F034F9E6
:1001B0004FF0000080F31188BDE808401968086816
:1001C000B0E8F00F80F30988BFF36F8F704700BF6E
:1001D00000000020EFF305807047000006488047CC
:1001E00006480047FEE7FEE7FEE7FEE7FEE7FEE71C
:1001F000FEE7FEE7FEE7FEE71D0300083101000809
:10020000064C074D06E0E06840F0010394E8070063
:1002100098471034AC42F6D3FFF78EFFC8050008AC
:10022000E805000800BFFEE7704700BFFEE700BF1B
:10023000FEE7704710B500F001F810BD0CB50020C6
:10024000019000903348006840F4803031490860E4
:1002500000BF3048006800F4003000900198401C56
:100260000190009818B90198B0F5A06FF1D1294814
:10027000006800F4003010B10120009001E000207F
:1002800000900098012843D12348006840F01000F6
:10029000214908600846006820F00300086008460D
:1002A000006840F0020008601A4840681949486038
:1002B0000846406848600846406840F480604860EE
:1002C0000846406820F47C1048600846406840F4C6
:1002D000E81048600846006840F08070086000BF81
:1002E0000C48006800F000700028F9D00948406808
:1002F00020F00300074948600846406840F00200CB
:10030000486000BF0348406800F00C000828F9D19D
:100310000CBD0000001002400020024010B5134840
:10032000006840F001001149086008464068104923
:1003300008400E494860084600680E4908400B49CD
:1003400008600846006820F480200860084640687D
:1003500020F4FE0048604FF41F008860FFF76AFF3A
:100360004FF000600449086010BD0000001002401A
:100370000000FFF8FFFFF6FE08ED00E000BFFEE71B
:1003800002E008C8121F08C1002AFAD1704770475E
:10039000002001E001C1121F002AFBD1704700BFFD
:1003A000FEE700000A490968096809B9012100E06F
:1003B000002121B14FF0FF31064A116006E00449E7
:1003C0000968C968C868034A41681160704700003D
:1003D000040000203000002001460A69D1E9013004
:1003E0009860D1E9010358605068884201D188685B
:1003F0005060002008611068401E1060106870474F
:1004000042684A6093688B609368596091600861A4
:1004100003685B1C036070471248006818B1012034
:10042000114908601DE000200F4908600F4800686E
:10043000B0FA80F0C0F11F0101EB81020C4B03EB1D
:10044000820042685268426000F1080243689342A9
:1004500002D14268526842604268D268054B1A6015
:1004600000BF704738000020240000201800002042
:100470003C0000200000002010B500BFBF2080F32A
:100480001188BFF34F8FBFF36F8F00BF00F00EF8DE
:1004900018B14FF080500449086000BF002080F37D
:1004A000118800BF10BD000004ED00E02DE9F0410F
:1004B00000273A480068002863D139480068451C85
:1004C000374805608DB93748D0F800803648006855
:1004D000344908603448C0F8008034480068401C43
:1004E00032490860FFF75EFF00BF3148006885426F
:1004F0003BD300BF2B480068006808B9012000E02A
:10050000002020B14FF0FF30294908602CE0254839
:100510000068C068C4686668B54202D224480660B4
:1005200022E0201DFFF758FFA06A18B104F118005F
:10053000FFF752FF94F82C10012088401D490968EC
:1005400008431C490860E16A01EB81011A4A02EB89
:100550008100211DFFF754FF1849E06A0968C96A44
:100560008842C7D30127C5E700BF14480068C06AA6
:1005700000EB8000104951F82000012800D9012724
:1005800004E00F480068401C0D4908600D480068F1
:1005900000B101273846BDE8F08100003800002096
:1005A0001400002004000020080000202800002083
:1005B00030000020180000203C0000200000002037
:1005C0002000002024000020E80500080000002092
:1005D0003C00000080030008240600083C000020C6
:1005E000CC040000900300080000000000000000A0
:1005F00000000000000000000000000000000000FB
:1006000000000000000000000000000000000000EA
:1006100000000000000000000000000000000000DA
:0406200000000000D6
:0400000508000131BD
:00000001FF
